{
  "contractName": "QuotationContract",
  "abi": [
    {
      "constant": true,
      "inputs": [
        {
          "name": "",
          "type": "uint256"
        }
      ],
      "name": "quotations",
      "outputs": [
        {
          "name": "id",
          "type": "uint256"
        },
        {
          "name": "jsonContent",
          "type": "string"
        }
      ],
      "payable": false,
      "stateMutability": "view",
      "type": "function",
      "signature": "0x4e896258"
    },
    {
      "constant": true,
      "inputs": [],
      "name": "quotationCount",
      "outputs": [
        {
          "name": "",
          "type": "uint256"
        }
      ],
      "payable": false,
      "stateMutability": "view",
      "type": "function",
      "signature": "0x8d291db7"
    },
    {
      "constant": true,
      "inputs": [
        {
          "name": "",
          "type": "uint256"
        }
      ],
      "name": "tasks",
      "outputs": [
        {
          "name": "id",
          "type": "uint256"
        },
        {
          "name": "quoteId",
          "type": "uint256"
        },
        {
          "name": "jsonContent",
          "type": "string"
        }
      ],
      "payable": false,
      "stateMutability": "view",
      "type": "function",
      "signature": "0x8d977672"
    },
    {
      "constant": true,
      "inputs": [],
      "name": "taskCount",
      "outputs": [
        {
          "name": "",
          "type": "uint256"
        }
      ],
      "payable": false,
      "stateMutability": "view",
      "type": "function",
      "signature": "0xb6cb58a5"
    },
    {
      "anonymous": false,
      "inputs": [
        {
          "indexed": false,
          "name": "id",
          "type": "uint256"
        },
        {
          "indexed": false,
          "name": "jsonContent",
          "type": "string"
        }
      ],
      "name": "QuotationCreated",
      "type": "event",
      "signature": "0x4acbd44fb792698891f661980d296da49eaaa68f514f2f4a36016c949ceab456"
    },
    {
      "anonymous": false,
      "inputs": [
        {
          "indexed": false,
          "name": "id",
          "type": "uint256"
        },
        {
          "indexed": false,
          "name": "quoteId",
          "type": "uint256"
        },
        {
          "indexed": false,
          "name": "jsonContent",
          "type": "string"
        }
      ],
      "name": "TaskCreated",
      "type": "event",
      "signature": "0xaaea5a85c9c3b7b12c48d96193f953955bc3d1b2b0790405eb9b4aa2973a1131"
    },
    {
      "constant": false,
      "inputs": [
        {
          "name": "_id",
          "type": "uint256"
        },
        {
          "name": "_qId",
          "type": "uint256"
        },
        {
          "name": "jsonContent",
          "type": "string"
        }
      ],
      "name": "createTask",
      "outputs": [],
      "payable": false,
      "stateMutability": "nonpayable",
      "type": "function",
      "signature": "0x82b35017"
    },
    {
      "constant": false,
      "inputs": [
        {
          "name": "jsonContent",
          "type": "string"
        }
      ],
      "name": "createQuotation",
      "outputs": [],
      "payable": false,
      "stateMutability": "nonpayable",
      "type": "function",
      "signature": "0x4dcc16f0"
    },
    {
      "constant": true,
      "inputs": [
        {
          "name": "_id",
          "type": "uint256"
        }
      ],
      "name": "getQuotation",
      "outputs": [
        {
          "name": "",
          "type": "string"
        }
      ],
      "payable": false,
      "stateMutability": "view",
      "type": "function",
      "signature": "0x0a23ba9c"
    },
    {
      "constant": true,
      "inputs": [
        {
          "name": "_id",
          "type": "uint256"
        }
      ],
      "name": "getTask",
      "outputs": [
        {
          "name": "",
          "type": "uint256"
        },
        {
          "name": "",
          "type": "string"
        }
      ],
      "payable": false,
      "stateMutability": "view",
      "type": "function",
      "signature": "0x1d65e77e"
    }
  ],
  "bytecode": "0x608060405260008055600060015534801561001957600080fd5b506108dd806100296000396000f3fe60806040526004361061008d5763ffffffff7c01000000000000000000000000000000000000000000000000000000006000350416630a23ba9c81146100925780631d65e77e146100c85780634dcc16f0146100f65780634e8962581461011857806382b35017146101385780638d291db7146101585780638d9776721461017a578063b6cb58a5146101a9575b600080fd5b34801561009e57600080fd5b506100b26100ad3660046106c8565b6101be565b6040516100bf919061078f565b60405180910390f35b3480156100d457600080fd5b506100e86100e33660046106c8565b610260565b6040516100bf9291906107b4565b34801561010257600080fd5b5061011661011136600461068b565b61030c565b005b34801561012457600080fd5b506100e86101333660046106c8565b610395565b34801561014457600080fd5b506101166101533660046106e6565b61043a565b34801561016457600080fd5b5061016d6104d4565b6040516100bf91906107a0565b34801561018657600080fd5b5061019a6101953660046106c8565b6104da565b6040516100bf939291906107d4565b3480156101b557600080fd5b5061016d610583565b6000818152600260208181526040928390206001908101805485519281161561010002600019011693909304601f81018390048302820183019094528381526060939092918301828280156102545780601f1061022957610100808354040283529160200191610254565b820191906000526020600020905b81548152906001019060200180831161023757829003601f168201915b50505050509050919050565b60008181526003602090815260408083206001808201546002928301805485519381161561010002600019011693909304601f8101869004860283018601909452838252606094909383918301828280156102fc5780601f106102d1576101008083540402835291602001916102fc565b820191906000526020600020905b8154815290600101906020018083116102df57829003601f168201915b5050505050905091509150915091565b600080546001908101808355604080518082018252828152602080820187815293865260028152919094208451815591518051929361035393908501929190910190610589565b509050507f4acbd44fb792698891f661980d296da49eaaa68f514f2f4a36016c949ceab4566000548260405161038a9291906107b4565b60405180910390a150565b60026020818152600092835260409283902080546001808301805487519281161561010002600019011695909504601f81018590048502820185019096528581529094919390929091908301828280156104305780601f1061040557610100808354040283529160200191610430565b820191906000526020600020905b81548152906001019060200180831161041357829003601f168201915b5050505050905082565b600180548101815560408051606081018252858152602080820186815282840186815260008981526003845294909420835181559051948101949094559151805191939261049092600285019290910190610589565b509050507faaea5a85c9c3b7b12c48d96193f953955bc3d1b2b0790405eb9b4aa2973a11318383836040516104c7939291906107d4565b60405180910390a1505050565b60005481565b60036020908152600091825260409182902080546001808301546002808501805488519481161561010002600019011691909104601f8101879004870284018701909752868352929590949192918301828280156105795780601f1061054e57610100808354040283529160200191610579565b820191906000526020600020905b81548152906001019060200180831161055c57829003601f168201915b5050505050905083565b60015481565b828054600181600116156101000203166002900490600052602060002090601f016020900481019282601f106105ca57805160ff19168380011785556105f7565b828001600101855582156105f7579182015b828111156105f75782518255916020019190600101906105dc565b50610603929150610607565b5090565b61062191905b80821115610603576000815560010161060d565b90565b6000601f8201831361063557600080fd5b813561064861064382610831565b61080a565b9150808252602083016020830185838301111561066457600080fd5b61066f83828461085d565b50505092915050565b60006106848235610621565b9392505050565b60006020828403121561069d57600080fd5b813567ffffffffffffffff8111156106b457600080fd5b6106c084828501610624565b949350505050565b6000602082840312156106da57600080fd5b60006106c08484610678565b6000806000606084860312156106fb57600080fd5b60006107078686610678565b935050602061071886828701610678565b925050604084013567ffffffffffffffff81111561073557600080fd5b61074186828701610624565b9150509250925092565b600061075682610859565b80845261076a816020860160208601610869565b61077381610899565b9093016020019392505050565b61078981610621565b82525050565b60208082528101610684818461074b565b602081016107ae8284610780565b92915050565b604081016107c28285610780565b81810360208301526106c0818461074b565b606081016107e28286610780565b6107ef6020830185610780565b8181036040830152610801818461074b565b95945050505050565b60405181810167ffffffffffffffff8111828210171561082957600080fd5b604052919050565b600067ffffffffffffffff82111561084857600080fd5b506020601f91909101601f19160190565b5190565b82818337506000910152565b60005b8381101561088457818101518382015260200161086c565b83811115610893576000848401525b50505050565b601f01601f19169056fea265627a7a723058201319aa38674493a922228042e2625d42d39966fb8dfb1821c25f1f650316bd4c6c6578706572696d656e74616cf50037",
  "source": "pragma solidity ^0.5.0;\npragma experimental ABIEncoderV2;\n\ncontract QuotationContract {\n    uint public quotationCount = 0; //estado do contato\n    uint public taskCount = 0; //estado do contato\n    struct Task {\n        uint id;\n        uint quoteId;\n        string jsonContent;\n    }\n    struct Quotation {\n        uint id;\n        string jsonContent;\n    }\n\n    mapping(uint => Quotation) public quotations; //id da quotation\n    mapping(uint => Task) public tasks; //id da task\n\n    event QuotationCreated(uint id, string jsonContent);\n    event TaskCreated(uint id, uint quoteId, string jsonContent);\n\n    \n    function createTask(uint _id, uint _qId, string memory jsonContent) public {\n        taskCount++;\n        tasks[_id] = Task(_id, _qId, jsonContent);\n        emit TaskCreated(_id, _qId, jsonContent);\n        \n    }\n\n    function createQuotation(string memory jsonContent) public {\n        quotationCount++;\n        quotations[quotationCount] = Quotation(quotationCount, jsonContent);\n        emit QuotationCreated(quotationCount, jsonContent);\n    }\n    \n    function getQuotation(uint _id) public view returns(string memory) {\n        return(quotations[_id].jsonContent);\n    }\n    \n    \n    function getTask(uint _id) public view returns(uint, string memory) {\n        return(tasks[_id].quoteId, tasks[_id].jsonContent);\n    }\n    \n}\n",
  "sourcePath": "/home/luiz/Área de Trabalho/repo/airplane-repair-ethereum/contracts/QuotationContract.sol",
  "compiler": {
    "name": "solc",
    "version": "0.5.0+commit.1d4f565a.Emscripten.clang"
  },
  "schemaVersion": "3.0.1",
  "updatedAt": "2020-08-04T02:08:30.539Z",
  "devdoc": {
    "methods": {}
  },
  "userdoc": {
    "methods": {}
  }
}