{
  "contractName": "QuotationContract",
  "abi": [
    {
      "constant": true,
      "inputs": [
        {
          "name": "",
          "type": "uint256"
        }
      ],
      "name": "quotations",
      "outputs": [
        {
          "name": "id",
          "type": "uint256"
        },
        {
          "name": "jsonContent",
          "type": "string"
        }
      ],
      "payable": false,
      "stateMutability": "view",
      "type": "function",
      "signature": "0x4e896258"
    },
    {
      "constant": true,
      "inputs": [],
      "name": "quotationCount",
      "outputs": [
        {
          "name": "",
          "type": "uint256"
        }
      ],
      "payable": false,
      "stateMutability": "view",
      "type": "function",
      "signature": "0x8d291db7"
    },
    {
      "constant": true,
      "inputs": [
        {
          "name": "",
          "type": "uint256"
        }
      ],
      "name": "tasks",
      "outputs": [
        {
          "name": "id",
          "type": "uint256"
        },
        {
          "name": "jsonContent",
          "type": "string"
        }
      ],
      "payable": false,
      "stateMutability": "view",
      "type": "function",
      "signature": "0x8d977672"
    },
    {
      "constant": true,
      "inputs": [],
      "name": "taskCount",
      "outputs": [
        {
          "name": "",
          "type": "uint256"
        }
      ],
      "payable": false,
      "stateMutability": "view",
      "type": "function",
      "signature": "0xb6cb58a5"
    },
    {
      "anonymous": false,
      "inputs": [
        {
          "indexed": false,
          "name": "id",
          "type": "uint256"
        },
        {
          "indexed": false,
          "name": "jsonContent",
          "type": "string"
        }
      ],
      "name": "QuotationCreated",
      "type": "event",
      "signature": "0x4acbd44fb792698891f661980d296da49eaaa68f514f2f4a36016c949ceab456"
    },
    {
      "anonymous": false,
      "inputs": [
        {
          "indexed": false,
          "name": "id",
          "type": "uint256"
        },
        {
          "indexed": false,
          "name": "jsonContent",
          "type": "string"
        }
      ],
      "name": "TaskCreated",
      "type": "event",
      "signature": "0xa5ed9e6226c584326505694539c95cb0e3238ae09bcda5a65c00bbfdab1c6662"
    },
    {
      "constant": false,
      "inputs": [
        {
          "name": "jsonContent",
          "type": "string"
        }
      ],
      "name": "createTask",
      "outputs": [],
      "payable": false,
      "stateMutability": "nonpayable",
      "type": "function",
      "signature": "0x111002aa"
    },
    {
      "constant": false,
      "inputs": [
        {
          "name": "jsonContent",
          "type": "string"
        }
      ],
      "name": "createQuotation",
      "outputs": [],
      "payable": false,
      "stateMutability": "nonpayable",
      "type": "function",
      "signature": "0x4dcc16f0"
    },
    {
      "constant": true,
      "inputs": [
        {
          "name": "_id",
          "type": "uint256"
        }
      ],
      "name": "getQuotation",
      "outputs": [
        {
          "name": "",
          "type": "string"
        }
      ],
      "payable": false,
      "stateMutability": "view",
      "type": "function",
      "signature": "0x0a23ba9c"
    },
    {
      "constant": true,
      "inputs": [
        {
          "name": "_id",
          "type": "uint256"
        }
      ],
      "name": "getTask",
      "outputs": [
        {
          "name": "",
          "type": "uint256"
        },
        {
          "name": "",
          "type": "string"
        }
      ],
      "payable": false,
      "stateMutability": "view",
      "type": "function",
      "signature": "0x1d65e77e"
    }
  ],
  "bytecode": "0x608060405260008055600060015534801561001957600080fd5b506107e2806100296000396000f3fe60806040526004361061008d5763ffffffff7c01000000000000000000000000000000000000000000000000000000006000350416630a23ba9c8114610092578063111002aa146100c85780631d65e77e146100ea5780634dcc16f0146101185780634e896258146101385780638d291db7146101585780638d9776721461017a578063b6cb58a51461019a575b600080fd5b34801561009e57600080fd5b506100b26100ad366004610668565b6101af565b6040516100bf91906106ca565b60405180910390f35b3480156100d457600080fd5b506100e86100e336600461062b565b610251565b005b3480156100f657600080fd5b5061010a610105366004610668565b6102d8565b6040516100bf9291906106ef565b34801561012457600080fd5b506100e861013336600461062b565b610388565b34801561014457600080fd5b5061010a610153366004610668565b610406565b34801561016457600080fd5b5061016d6104ab565b6040516100bf91906106db565b34801561018657600080fd5b5061010a610195366004610668565b6104b1565b3480156101a657600080fd5b5061016d610523565b6000818152600260208181526040928390206001908101805485519281161561010002600019011693909304601f81018390048302820183019094528381526060939092918301828280156102455780601f1061021a57610100808354040283529160200191610245565b820191906000526020600020905b81548152906001019060200180831161022857829003601f168201915b50505050509050919050565b60018054810180825560408051808201825282815260208082018681526000948552600382529290932081518155915180519194929361029693850192910190610529565b509050507fa5ed9e6226c584326505694539c95cb0e3238ae09bcda5a65c00bbfdab1c6662600154826040516102cd9291906106ef565b60405180910390a150565b60008181526003602090815260408083208054600191820180548451600294821615610100026000190190911693909304601f810186900486028401860190945283835260609491939092918391908301828280156103785780601f1061034d57610100808354040283529160200191610378565b820191906000526020600020905b81548152906001019060200180831161035b57829003601f168201915b5050505050905091509150915091565b60008054600190810180835560408051808201825282815260208082018781529386526002815291909420845181559151805192936103cf93908501929190910190610529565b509050507f4acbd44fb792698891f661980d296da49eaaa68f514f2f4a36016c949ceab456600054826040516102cd9291906106ef565b60026020818152600092835260409283902080546001808301805487519281161561010002600019011695909504601f81018590048502820185019096528581529094919390929091908301828280156104a15780601f10610476576101008083540402835291602001916104a1565b820191906000526020600020905b81548152906001019060200180831161048457829003601f168201915b5050505050905082565b60005481565b6003602090815260009182526040918290208054600180830180548651600293821615610100026000190190911692909204601f8101869004860283018601909652858252919492939092908301828280156104a15780601f10610476576101008083540402835291602001916104a1565b60015481565b828054600181600116156101000203166002900490600052602060002090601f016020900481019282601f1061056a57805160ff1916838001178555610597565b82800160010185558215610597579182015b8281111561059757825182559160200191906001019061057c565b506105a39291506105a7565b5090565b6105c191905b808211156105a357600081556001016105ad565b90565b6000601f820183136105d557600080fd5b81356105e86105e382610736565b61070f565b9150808252602083016020830185838301111561060457600080fd5b61060f838284610762565b50505092915050565b600061062482356105c1565b9392505050565b60006020828403121561063d57600080fd5b813567ffffffffffffffff81111561065457600080fd5b610660848285016105c4565b949350505050565b60006020828403121561067a57600080fd5b60006106608484610618565b60006106918261075e565b8084526106a581602086016020860161076e565b6106ae8161079e565b9093016020019392505050565b6106c4816105c1565b82525050565b602080825281016106248184610686565b602081016106e982846106bb565b92915050565b604081016106fd82856106bb565b81810360208301526106608184610686565b60405181810167ffffffffffffffff8111828210171561072e57600080fd5b604052919050565b600067ffffffffffffffff82111561074d57600080fd5b506020601f91909101601f19160190565b5190565b82818337506000910152565b60005b83811015610789578181015183820152602001610771565b83811115610798576000848401525b50505050565b601f01601f19169056fea265627a7a7230582030a789c2e3f751ce914b62f66d58e6c6d38bd8467c0d581549ecd0a4e659bd3a6c6578706572696d656e74616cf50037",
  "source": "pragma solidity ^0.5.0;\npragma experimental ABIEncoderV2;\n\ncontract QuotationContract {\n    uint public quotationCount = 0; //estado do contrato\n    uint public taskCount = 0; //estado do contrato\n    struct Task {\n        uint id;\n        string jsonContent;\n    }\n    struct Quotation {\n        uint id;\n        string jsonContent;\n    }\n\n    mapping(uint => Quotation) public quotations; //id da quotation\n    mapping(uint => Task) public tasks; //id da task\n\n    event QuotationCreated(uint id, string jsonContent);\n    event TaskCreated(uint id, string jsonContent);\n\n    \n    function createTask(string memory jsonContent) public {\n        taskCount++;\n        tasks[taskCount] = Task(taskCount, jsonContent);\n        emit TaskCreated(taskCount, jsonContent);\n        \n    }\n\n    function createQuotation(string memory jsonContent) public {\n        quotationCount++;\n        quotations[quotationCount] = Quotation(quotationCount, jsonContent);\n        emit QuotationCreated(quotationCount, jsonContent);\n    }\n    \n    function getQuotation(uint _id) public view returns(string memory) {\n        return(quotations[_id].jsonContent);\n    }\n    \n    \n    function getTask(uint _id) public view returns(uint, string memory) {\n        return(tasks[_id].id, tasks[_id].jsonContent);\n    }\n    \n}",
  "sourcePath": "/home/luiz/Área de Trabalho/repo/airplane-repair-ethereum/contracts/QuotationContract.sol",
  "compiler": {
    "name": "solc",
    "version": "0.5.0+commit.1d4f565a.Emscripten.clang"
  },
  "schemaVersion": "3.0.1",
  "updatedAt": "2020-08-21T23:00:40.171Z",
  "devdoc": {
    "methods": {}
  },
  "userdoc": {
    "methods": {}
  }
}