{
  "contractName": "QuotationContract",
  "abi": [
    {
      "constant": true,
      "inputs": [
        {
          "name": "",
          "type": "uint256"
        }
      ],
      "name": "completedTasks",
      "outputs": [
        {
          "name": "jsonContent",
          "type": "string"
        }
      ],
      "payable": false,
      "stateMutability": "view",
      "type": "function",
      "signature": "0x40d22cf8"
    },
    {
      "constant": true,
      "inputs": [
        {
          "name": "",
          "type": "uint256"
        }
      ],
      "name": "quotations",
      "outputs": [
        {
          "name": "id",
          "type": "uint256"
        },
        {
          "name": "jsonContent",
          "type": "string"
        }
      ],
      "payable": false,
      "stateMutability": "view",
      "type": "function",
      "signature": "0x4e896258"
    },
    {
      "constant": true,
      "inputs": [],
      "name": "completedTaskCount",
      "outputs": [
        {
          "name": "",
          "type": "uint256"
        }
      ],
      "payable": false,
      "stateMutability": "view",
      "type": "function",
      "signature": "0x8cb8d881"
    },
    {
      "constant": true,
      "inputs": [],
      "name": "quotationCount",
      "outputs": [
        {
          "name": "",
          "type": "uint256"
        }
      ],
      "payable": false,
      "stateMutability": "view",
      "type": "function",
      "signature": "0x8d291db7"
    },
    {
      "constant": true,
      "inputs": [
        {
          "name": "",
          "type": "uint256"
        }
      ],
      "name": "tasks",
      "outputs": [
        {
          "name": "id",
          "type": "uint256"
        },
        {
          "name": "jsonContent",
          "type": "string"
        }
      ],
      "payable": false,
      "stateMutability": "view",
      "type": "function",
      "signature": "0x8d977672"
    },
    {
      "constant": true,
      "inputs": [],
      "name": "taskCount",
      "outputs": [
        {
          "name": "",
          "type": "uint256"
        }
      ],
      "payable": false,
      "stateMutability": "view",
      "type": "function",
      "signature": "0xb6cb58a5"
    },
    {
      "anonymous": false,
      "inputs": [
        {
          "indexed": false,
          "name": "id",
          "type": "uint256"
        },
        {
          "indexed": false,
          "name": "jsonContent",
          "type": "string"
        }
      ],
      "name": "QuotationCreated",
      "type": "event",
      "signature": "0x4acbd44fb792698891f661980d296da49eaaa68f514f2f4a36016c949ceab456"
    },
    {
      "anonymous": false,
      "inputs": [
        {
          "indexed": false,
          "name": "id",
          "type": "uint256"
        },
        {
          "indexed": false,
          "name": "jsonContent",
          "type": "string"
        }
      ],
      "name": "TaskCreated",
      "type": "event",
      "signature": "0xa5ed9e6226c584326505694539c95cb0e3238ae09bcda5a65c00bbfdab1c6662"
    },
    {
      "anonymous": false,
      "inputs": [
        {
          "indexed": false,
          "name": "jsonContent",
          "type": "string"
        }
      ],
      "name": "CompletedTaskCreated",
      "type": "event",
      "signature": "0x7a48ebc872610b1700bcda04809a3ef412ed1544ca482b01558cde74da9514fb"
    },
    {
      "constant": false,
      "inputs": [
        {
          "name": "jsonContent",
          "type": "string"
        }
      ],
      "name": "createTask",
      "outputs": [],
      "payable": false,
      "stateMutability": "nonpayable",
      "type": "function",
      "signature": "0x111002aa"
    },
    {
      "constant": false,
      "inputs": [
        {
          "name": "jsonContent",
          "type": "string"
        }
      ],
      "name": "createCompleteTask",
      "outputs": [],
      "payable": false,
      "stateMutability": "nonpayable",
      "type": "function",
      "signature": "0xe0373daf"
    },
    {
      "constant": false,
      "inputs": [
        {
          "name": "jsonContent",
          "type": "string"
        }
      ],
      "name": "createQuotation",
      "outputs": [],
      "payable": false,
      "stateMutability": "nonpayable",
      "type": "function",
      "signature": "0x4dcc16f0"
    },
    {
      "constant": true,
      "inputs": [
        {
          "name": "_id",
          "type": "uint256"
        }
      ],
      "name": "getQuotation",
      "outputs": [
        {
          "name": "",
          "type": "string"
        }
      ],
      "payable": false,
      "stateMutability": "view",
      "type": "function",
      "signature": "0x0a23ba9c"
    },
    {
      "constant": true,
      "inputs": [
        {
          "name": "_id",
          "type": "uint256"
        }
      ],
      "name": "getTask",
      "outputs": [
        {
          "name": "",
          "type": "uint256"
        },
        {
          "name": "",
          "type": "string"
        }
      ],
      "payable": false,
      "stateMutability": "view",
      "type": "function",
      "signature": "0x1d65e77e"
    }
  ],
  "bytecode": "0x6080604052600080556000600155600060025534801561001e57600080fd5b506109858061002e6000396000f3fe6080604052600436106100ae5763ffffffff7c01000000000000000000000000000000000000000000000000000000006000350416630a23ba9c81146100b3578063111002aa146100e95780631d65e77e1461010b57806340d22cf8146101395780634dcc16f0146101595780634e896258146101795780638cb8d881146101995780638d291db7146101bb5780638d977672146101d0578063b6cb58a5146101f0578063e0373daf14610205575b600080fd5b3480156100bf57600080fd5b506100d36100ce36600461080b565b610225565b6040516100e0919061086d565b60405180910390f35b3480156100f557600080fd5b506101096101043660046107ce565b6102dd565b005b34801561011757600080fd5b5061012b61012636600461080b565b610364565b6040516100e0929190610892565b34801561014557600080fd5b506100d361015436600461080b565b610414565b34801561016557600080fd5b506101096101743660046107ce565b6104b5565b34801561018557600080fd5b5061012b61019436600461080b565b610533565b3480156101a557600080fd5b506101ae6105da565b6040516100e0919061087e565b3480156101c757600080fd5b506101ae6105e0565b3480156101dc57600080fd5b5061012b6101eb36600461080b565b6105e6565b3480156101fc57600080fd5b506101ae610658565b34801561021157600080fd5b506101096102203660046107ce565b61065e565b6060600360008381526020019081526020016000206001018054600181600116156101000203166002900480601f0160208091040260200160405190810160405280929190818152602001828054600181600116156101000203166002900480156102d15780601f106102a6576101008083540402835291602001916102d1565b820191906000526020600020905b8154815290600101906020018083116102b457829003601f168201915b50505050509050919050565b600180548101808255604080518082018252828152602080820186815260009485526004825292909320815181559151805191949293610322938501929101906106cc565b509050507fa5ed9e6226c584326505694539c95cb0e3238ae09bcda5a65c00bbfdab1c666260015482604051610359929190610892565b60405180910390a150565b60008181526004602090815260408083208054600191820180548451600294821615610100026000190190911693909304601f810186900486028401860190945283835260609491939092918391908301828280156104045780601f106103d957610100808354040283529160200191610404565b820191906000526020600020905b8154815290600101906020018083116103e757829003601f168201915b5050505050905091509150915091565b60056020908152600091825260409182902080548351601f600260001961010060018616150201909316929092049182018490048402810184019094528084529092918391908301828280156104ab5780601f10610480576101008083540402835291602001916104ab565b820191906000526020600020905b81548152906001019060200180831161048e57829003601f168201915b5050505050905081565b60008054600190810180835560408051808201825282815260208082018781529386526003815291909420845181559151805192936104fc939085019291909101906106cc565b509050507f4acbd44fb792698891f661980d296da49eaaa68f514f2f4a36016c949ceab45660005482604051610359929190610892565b6003602090815260009182526040918290208054600180830180548651600293821615610100026000190190911692909204601f8101869004860283018601909652858252919492939092908301828280156105d05780601f106105a5576101008083540402835291602001916105d0565b820191906000526020600020905b8154815290600101906020018083116105b357829003601f168201915b5050505050905082565b60025481565b60005481565b6004602090815260009182526040918290208054600180830180548651600293821615610100026000190190911692909204601f8101869004860283018601909652858252919492939092908301828280156105d05780601f106105a5576101008083540402835291602001916105d0565b60015481565b6002805460010190819055604080516020818101835284825260009384526005815291909220825180519192610699928492909101906106cc565b509050507f7a48ebc872610b1700bcda04809a3ef412ed1544ca482b01558cde74da9514fb81604051610359919061086d565b828054600181600116156101000203166002900490600052602060002090601f016020900481019282601f1061070d57805160ff191683800117855561073a565b8280016001018555821561073a579182015b8281111561073a57825182559160200191906001019061071f565b5061074692915061074a565b5090565b61076491905b808211156107465760008155600101610750565b90565b6000601f8201831361077857600080fd5b813561078b610786826108d9565b6108b2565b915080825260208301602083018583830111156107a757600080fd5b6107b2838284610905565b50505092915050565b60006107c78235610764565b9392505050565b6000602082840312156107e057600080fd5b813567ffffffffffffffff8111156107f757600080fd5b61080384828501610767565b949350505050565b60006020828403121561081d57600080fd5b600061080384846107bb565b600061083482610901565b808452610848816020860160208601610911565b61085181610941565b9093016020019392505050565b61086781610764565b82525050565b602080825281016107c78184610829565b6020810161088c828461085e565b92915050565b604081016108a0828561085e565b81810360208301526108038184610829565b60405181810167ffffffffffffffff811182821017156108d157600080fd5b604052919050565b600067ffffffffffffffff8211156108f057600080fd5b506020601f91909101601f19160190565b5190565b82818337506000910152565b60005b8381101561092c578181015183820152602001610914565b8381111561093b576000848401525b50505050565b601f01601f19169056fea265627a7a72305820fc35899f282df52eef5119df74f17acd7df76576e56ec0a531eae0fff64e8eed6c6578706572696d656e74616cf50037",
  "source": "pragma solidity ^0.5.0;\npragma experimental ABIEncoderV2;\n\ncontract QuotationContract {\n    uint public quotationCount = 0; //estado do contrato\n    uint public taskCount = 0; //estado do contrato\n    uint public completedTaskCount = 0; //estado do contrato\n    struct Task {\n        uint id;\n        string jsonContent;\n    }\n    struct Quotation {\n        uint id;\n        string jsonContent;\n    }\n\n    struct CompletedTask {\n        string jsonContent;\n        \n    }\n\n    mapping(uint => Quotation) public quotations; //id da quotation\n    mapping(uint => Task) public tasks; //id da task\n    mapping(uint => CompletedTask) public completedTasks; //id da task\n\n    event QuotationCreated(uint id, string jsonContent);\n    event TaskCreated(uint id, string jsonContent);\n    event CompletedTaskCreated(string jsonContent);\n\n    \n    function createTask(string memory jsonContent) public {\n        taskCount++;\n        tasks[taskCount] = Task(taskCount, jsonContent);\n        emit TaskCreated(taskCount, jsonContent);\n        \n    }\n    function createCompleteTask(string memory jsonContent) public {\n        completedTaskCount++;\n        completedTasks[completedTaskCount] = CompletedTask(jsonContent);\n        emit CompletedTaskCreated(jsonContent);\n        \n    }\n\n    function createQuotation(string memory jsonContent) public {\n        quotationCount++;\n        quotations[quotationCount] = Quotation(quotationCount, jsonContent);\n        emit QuotationCreated(quotationCount, jsonContent);\n    }\n    \n    function getQuotation(uint _id) public view returns(string memory) {\n        return(quotations[_id].jsonContent);\n    }\n    \n    \n    function getTask(uint _id) public view returns(uint, string memory) {\n        return(tasks[_id].id, tasks[_id].jsonContent);\n    }\n    \n}",
  "sourcePath": "/home/luiz/Área de Trabalho/repo/airplane-repair-ethereum/contracts/QuotationContract.sol",
  "compiler": {
    "name": "solc",
    "version": "0.5.0+commit.1d4f565a.Emscripten.clang"
  },
  "schemaVersion": "3.0.1",
  "updatedAt": "2020-09-05T04:36:18.748Z",
  "devdoc": {
    "methods": {}
  },
  "userdoc": {
    "methods": {}
  }
}