{
  "contractName": "QuotationContract",
  "abi": [
    {
      "constant": true,
      "inputs": [
        {
          "name": "",
          "type": "uint256"
        }
      ],
      "name": "quotations",
      "outputs": [
        {
          "name": "id",
          "type": "uint256"
        },
        {
          "name": "numTasks",
          "type": "uint256"
        },
        {
          "name": "airplane",
          "type": "string"
        },
        {
          "name": "repairItem",
          "type": "string"
        },
        {
          "name": "obs",
          "type": "string"
        },
        {
          "name": "completed",
          "type": "bool"
        }
      ],
      "payable": false,
      "stateMutability": "view",
      "type": "function",
      "signature": "0x4e896258"
    },
    {
      "constant": true,
      "inputs": [],
      "name": "quotationCount",
      "outputs": [
        {
          "name": "",
          "type": "uint256"
        }
      ],
      "payable": false,
      "stateMutability": "view",
      "type": "function",
      "signature": "0x8d291db7"
    },
    {
      "constant": true,
      "inputs": [
        {
          "name": "",
          "type": "uint256"
        }
      ],
      "name": "tasks",
      "outputs": [
        {
          "name": "id",
          "type": "uint256"
        },
        {
          "name": "quoteId",
          "type": "uint256"
        },
        {
          "name": "priceable",
          "type": "bool"
        },
        {
          "name": "estimatedCost",
          "type": "int256"
        },
        {
          "name": "description",
          "type": "string"
        }
      ],
      "payable": false,
      "stateMutability": "view",
      "type": "function",
      "signature": "0x8d977672"
    },
    {
      "constant": true,
      "inputs": [],
      "name": "taskCount",
      "outputs": [
        {
          "name": "",
          "type": "uint256"
        }
      ],
      "payable": false,
      "stateMutability": "view",
      "type": "function",
      "signature": "0xb6cb58a5"
    },
    {
      "anonymous": false,
      "inputs": [
        {
          "indexed": false,
          "name": "id",
          "type": "uint256"
        },
        {
          "indexed": false,
          "name": "tasks",
          "type": "int256"
        },
        {
          "indexed": false,
          "name": "airplane",
          "type": "string"
        },
        {
          "indexed": false,
          "name": "repairItem",
          "type": "string"
        },
        {
          "indexed": false,
          "name": "obs",
          "type": "string"
        },
        {
          "indexed": false,
          "name": "completed",
          "type": "bool"
        }
      ],
      "name": "QuotationCreated",
      "type": "event",
      "signature": "0x0e6ac23582b306a5312be535d0dff93dab2f461cf10bffab6d832753f235c46a"
    },
    {
      "anonymous": false,
      "inputs": [
        {
          "indexed": false,
          "name": "id",
          "type": "uint256"
        },
        {
          "indexed": false,
          "name": "quoteId",
          "type": "uint256"
        },
        {
          "indexed": false,
          "name": "priceable",
          "type": "bool"
        },
        {
          "indexed": false,
          "name": "estimatedCost",
          "type": "int256"
        },
        {
          "indexed": false,
          "name": "description",
          "type": "string"
        }
      ],
      "name": "TaskCreated",
      "type": "event",
      "signature": "0x9dbdc434f21886a6d986053f9e329694b67e721ae7dab8867fa2ed256af5441c"
    },
    {
      "constant": false,
      "inputs": [
        {
          "name": "_id",
          "type": "uint256"
        },
        {
          "name": "_qId",
          "type": "uint256"
        },
        {
          "name": "_priceable",
          "type": "bool"
        },
        {
          "name": "_cost",
          "type": "int256"
        },
        {
          "name": "_desc",
          "type": "string"
        }
      ],
      "name": "createTask",
      "outputs": [],
      "payable": false,
      "stateMutability": "nonpayable",
      "type": "function",
      "signature": "0x17b10455"
    },
    {
      "constant": false,
      "inputs": [
        {
          "name": "_airplane",
          "type": "string"
        },
        {
          "name": "_item",
          "type": "string"
        },
        {
          "name": "_obs",
          "type": "string"
        },
        {
          "name": "_completed",
          "type": "bool"
        }
      ],
      "name": "createQuotation",
      "outputs": [],
      "payable": false,
      "stateMutability": "nonpayable",
      "type": "function",
      "signature": "0x7bc1f242"
    },
    {
      "constant": true,
      "inputs": [
        {
          "name": "_id",
          "type": "uint256"
        }
      ],
      "name": "getQuotation",
      "outputs": [
        {
          "name": "",
          "type": "uint256"
        },
        {
          "name": "",
          "type": "string"
        },
        {
          "name": "",
          "type": "string"
        },
        {
          "name": "",
          "type": "bool"
        }
      ],
      "payable": false,
      "stateMutability": "view",
      "type": "function",
      "signature": "0x0a23ba9c"
    },
    {
      "constant": true,
      "inputs": [
        {
          "name": "_id",
          "type": "uint256"
        }
      ],
      "name": "getTask",
      "outputs": [
        {
          "name": "",
          "type": "uint256"
        },
        {
          "name": "",
          "type": "bool"
        },
        {
          "name": "",
          "type": "int256"
        },
        {
          "name": "",
          "type": "string"
        }
      ],
      "payable": false,
      "stateMutability": "view",
      "type": "function",
      "signature": "0x1d65e77e"
    }
  ],
  "bytecode": "0x608060405260008055600060015534801561001957600080fd5b50610dd3806100296000396000f3fe60806040526004361061008d5763ffffffff7c01000000000000000000000000000000000000000000000000000000006000350416630a23ba9c811461009257806317b10455146100cb5780631d65e77e146100ed5780634e8962581461011d5780637bc1f2421461014f5780638d291db71461016f5780638d97767214610191578063b6cb58a5146101c2575b600080fd5b34801561009e57600080fd5b506100b26100ad366004610a72565b6101d7565b6040516100c29493929190610c42565b60405180910390f35b3480156100d757600080fd5b506100eb6100e6366004610a98565b61032f565b005b3480156100f957600080fd5b5061010d610108366004610a72565b6103fc565b6040516100c29493929190610b8f565b34801561012957600080fd5b5061013d610138366004610a72565b6104c7565b6040516100c296959493929190610cd5565b34801561015b57600080fd5b506100eb61016a3660046109ca565b61069a565b34801561017b57600080fd5b506101846107f4565b6040516100c29190610b7b565b34801561019d57600080fd5b506101b16101ac366004610a72565b6107fa565b6040516100c2959493929190610c8e565b3480156101ce57600080fd5b506101846108b6565b60008181526002602081815260408084206001808201546005830154838701805486516101009582161595909502600019011697909704601f8101879004870284018701909552848352606096879689969395919460039092019360ff90931692859183018282801561028b5780601f106102605761010080835404028352916020019161028b565b820191906000526020600020905b81548152906001019060200180831161026e57829003601f168201915b5050855460408051602060026001851615610100026000190190941693909304601f8101849004840282018401909252818152959850879450925084019050828280156103195780601f106102ee57610100808354040283529160200191610319565b820191906000526020600020905b8154815290600101906020018083116102fc57829003601f168201915b5050505050915093509350935093509193509193565b60018054810181556040805160a0810182528781526020808201888152871515838501908152606084018881526080850188815260008d8152600380875297902086518155935197840197909755905160028301805460ff191691151591909117905551938101939093559251805191936103b2926004850192909101906108bc565b509050507f9dbdc434f21886a6d986053f9e329694b67e721ae7dab8867fa2ed256af5441c85858585856040516103ed959493929190610c8e565b60405180910390a15050505050565b6000818152600360208181526040808420600180820154600280840154968401546004909401805486516101009582161595909502600019011691909104601f810187900487028401870190955284835287968796606096939560ff90921694919383918301828280156104b15780601f10610486576101008083540402835291602001916104b1565b820191906000526020600020905b81548152906001019060200180831161049457829003601f168201915b5050505050905093509350935093509193509193565b6002602081815260009283526040928390208054600180830154838601805488519381161561010002600019011696909604601f8101869004860283018601909752868252919591949293909291908301828280156105675780601f1061053c57610100808354040283529160200191610567565b820191906000526020600020905b81548152906001019060200180831161054a57829003601f168201915b5050505060038301805460408051602060026001851615610100026000190190941693909304601f81018490048402820184019092528181529495949350908301828280156105f75780601f106105cc576101008083540402835291602001916105f7565b820191906000526020600020905b8154815290600101906020018083116105da57829003601f168201915b5050505060048301805460408051602060026001851615610100026000190190941693909304601f81018490048402820184019092528181529495949350908301828280156106875780601f1061065c57610100808354040283529160200191610687565b820191906000526020600020905b81548152906001019060200180831161066a57829003601f168201915b5050506005909301549192505060ff1686565b6000805460019081018083556040805160c08101825282815260208082018581528284018b8152606084018b9052608084018a905288151560a0850152948752600280835293909620825181559551948601949094559151805192949361070793928501929101906108bc565b50606082015180516107239160038401916020909101906108bc565b506080820151805161073f9160048401916020909101906108bc565b5060a091909101516005909101805460ff191691151591909117905560018054810190556000805460408051808201909152601181527f51756f746174696f6e204372656174656400000000000000000000000000000060208201526107aa9291908290819061032f565b7f0e6ac23582b306a5312be535d0dff93dab2f461cf10bffab6d832753f235c46a6000546001868686866040516107e696959493929190610bd3565b60405180910390a150505050565b60005481565b6003602081815260009283526040928390208054600180830154600280850154968501546004860180548a516101009682161596909602600019011692909204601f81018890048802850188019099528884529397919660ff16959394939091908301828280156108ac5780601f10610881576101008083540402835291602001916108ac565b820191906000526020600020905b81548152906001019060200180831161088f57829003601f168201915b5050505050905085565b60015481565b828054600181600116156101000203166002900490600052602060002090601f016020900481019282601f106108fd57805160ff191683800117855561092a565b8280016001018555821561092a579182015b8281111561092a57825182559160200191906001019061090f565b5061093692915061093a565b5090565b61095491905b808211156109365760008155600101610940565b90565b60006109638235610d43565b9392505050565b60006109638235610954565b6000601f8201831361098757600080fd5b813561099a61099582610d17565b610cf0565b915080825260208301602083018583830111156109b657600080fd5b6109c1838284610d53565b50505092915050565b600080600080608085870312156109e057600080fd5b843567ffffffffffffffff8111156109f757600080fd5b610a0387828801610976565b945050602085013567ffffffffffffffff811115610a2057600080fd5b610a2c87828801610976565b935050604085013567ffffffffffffffff811115610a4957600080fd5b610a5587828801610976565b9250506060610a6687828801610957565b91505092959194509250565b600060208284031215610a8457600080fd5b6000610a90848461096a565b949350505050565b600080600080600060a08688031215610ab057600080fd5b6000610abc888861096a565b9550506020610acd8882890161096a565b9450506040610ade88828901610957565b9350506060610aef8882890161096a565b925050608086013567ffffffffffffffff811115610b0c57600080fd5b610b1888828901610976565b9150509295509295909350565b610b2e81610d43565b82525050565b610b2e81610954565b610b2e81610d48565b6000610b5182610d3f565b808452610b65816020860160208601610d5f565b610b6e81610d8f565b9093016020019392505050565b60208101610b898284610b34565b92915050565b60808101610b9d8287610b34565b610baa6020830186610b25565b610bb76040830185610b34565b8181036060830152610bc98184610b46565b9695505050505050565b60c08101610be18289610b34565b610bee6020830188610b3d565b8181036040830152610c008187610b46565b90508181036060830152610c148186610b46565b90508181036080830152610c288185610b46565b9050610c3760a0830184610b25565b979650505050505050565b60808101610c508287610b34565b8181036020830152610c628186610b46565b90508181036040830152610c768185610b46565b9050610c856060830184610b25565b95945050505050565b60a08101610c9c8288610b34565b610ca96020830187610b34565b610cb66040830186610b25565b610cc36060830185610b34565b8181036080830152610c378184610b46565b60c08101610ce38289610b34565b610bee6020830188610b34565b60405181810167ffffffffffffffff81118282101715610d0f57600080fd5b604052919050565b600067ffffffffffffffff821115610d2e57600080fd5b506020601f91909101601f19160190565b5190565b151590565b6000610b8982610954565b82818337506000910152565b60005b83811015610d7a578181015183820152602001610d62565b83811115610d89576000848401525b50505050565b601f01601f19169056fea265627a7a7230582082d31441bedc631e7e400066cd0c4af4b056ec52b21ab79bf8942c1eb9feca7d6c6578706572696d656e74616cf50037",
  "source": "pragma solidity ^0.5.0;\npragma experimental ABIEncoderV2;\n\ncontract QuotationContract {\n    uint public quotationCount = 0; //estado do contato\n    uint public taskCount = 0; //estado do contato\n    struct Task {\n        uint id;\n        uint quoteId;\n        bool priceable;\n        int estimatedCost;\n        string description;\n\n    }\n    struct Quotation {\n        uint id;\n        uint numTasks;\n        string airplane;\n        string repairItem;\n        string obs;\n        bool completed;\n    }\n\n    mapping(uint => Quotation) public quotations; //id da quotation\n    mapping(uint => Task) public tasks; //id da task\n\n    event QuotationCreated(uint id, int tasks, string airplane, string repairItem, string obs, bool completed);\n    event TaskCreated(uint id, uint quoteId, bool priceable, int estimatedCost, string description);\n\n    \n    function createTask(uint _id, uint _qId , bool _priceable, int _cost, string memory _desc) public {\n        taskCount++;\n        tasks[_id] = Task(_id, _qId, _priceable, _cost, _desc);\n        emit TaskCreated(_id, _qId, _priceable, _cost, _desc);\n        \n    }\n\n    function createQuotation(string memory _airplane, string memory _item, string memory _obs, bool _completed) public {\n        quotationCount++;\n        quotations[quotationCount] = Quotation(quotationCount, 1, _airplane, _item, _obs, _completed);\n        taskCount++;\n        createTask(0, quotationCount, false, 0, \"Quotation Created\");\n        emit QuotationCreated(quotationCount, 1, _airplane, _item, _obs, _completed);\n        \n    }\n    \n    function getQuotation(uint _id) public view returns(uint, string memory, string memory, bool) {\n        return(quotations[_id].numTasks, quotations[_id].airplane, quotations[_id].repairItem,quotations[_id].completed);\n    }\n    \n    \n    function getTask(uint _id) public view returns(uint, bool, int, string memory) {\n        return(tasks[_id].quoteId, tasks[_id].priceable, tasks[_id].estimatedCost, tasks[_id].description);\n    }\n    \n}\n",
  "sourcePath": "/home/luiz/Área de Trabalho/repo/project/contracts/QuotationContract.sol",
  "compiler": {
    "name": "solc",
    "version": "0.5.0+commit.1d4f565a.Emscripten.clang"
  },
  "schemaVersion": "3.0.1",
  "updatedAt": "2020-07-31T23:47:17.815Z",
  "devdoc": {
    "methods": {}
  },
  "userdoc": {
    "methods": {}
  }
}